:400000000080002011000000B1040000B104000008B5044B1A6803F53F5302331A6000F067FA00BFFA46004010B5054C237833B9044B13B10448AFF300800123237010BDAC
:40004000A881FF1F0000000044620000084B10B51BB108490848AFF300800848036803B910BD074B002BFBD0BDE81040184700BF00000000AC81FF1F44620000C880FF1FF6
:4000800000000000000000002DE9F04FC9B062B60121002000F084FB01F094FE01F0FCFD00240894FB22214609A804F096F8204603F0B4FE4E4903F0BDFF03F093FA0646A8
:4000C0000F4643A3D3E9002303F0E0FA0022494B03F0DCFA01F0E8FF3FA3D3E9002303F0D5FA3DA3D3E9002303F01EF98046894603F066FDC0B201F097FD01F077FE00200E
:4001000001F078FE002001F081FE1FFA80FB012001F07CFE1FFA80FA022001F077FE85B24046494603F074FD03F05CFA2CA3D3E9002303F0ABFA2CA3D3E9002303F0D0FBE2
:4001400003F066FD8046584603F068FE2A4903F0BDFE2A4903F06EFF8146504603F05EFE254903F0B3FE254903F064FF8246284603F054FE204903F0A9FE204903F05AFFC3
:4001800003F030FACDE90601504603F02BFACDE90401484603F026FACDE90201404603F021FACDE9000132463B46154908A804F08DFC00F043FC0028FBD008A800F0EEFB28
:4001C0000134012001F090FC71E700BFAFF300807A008BFCFA2119400000000000C05F40FCA9F1D24D62F03F0000000000E06F4000007A44000024400000A04000F07F4594
:4002000048620000FEE700BFF0B40022174611E050F82760F3B226F0FF0608E001EB420511F812406D78A5550132013BDBB2002BF4D10137232FEBD9F0BC704708B50A46CE
:40024000002103F0CAFF08BD38B50E22244B1A80182202331A70062203F27E231A705222A3F580731A701F4B1B78DBB21E4A13704FF4E1621D4B1A8041F25122023B1A8072
:40028000002419250CE01A4B1B7803F0010343EA440404F003044FF4F07001F0C5FE013D0DB1032CEFD115B90320FFF7ABFF114A4FF4807313800723137000230E490B70F8
:4002C00048200231087013700532137002220B4B1A700B4A137843F00103137038BD00BF804000400F010049A1460040224200402542004004400040064000400140004006
:40030000A2430040F8B5194B1B78DBB2184E3478E4B2184F3D78EDB203F00701164A11701B090132137044F00303337045F003033B700122114B1A700723114A1370402218
:4003400010490A7002310A7010210F4A11709032137020220D4B1A700A2001F0DBFB3D70347044220A4B1A70F8BD00BFCF010049F8460040F94600406E5800400D510040D4
:400380002D51004001590040905A0040235B00407658004008B503F015FF08BD38B572B6304A137843F00403137000240CE02E4D630019194A0011462A4408469188285879
:4003C000FFF73CFF0134E4B2062CF0D927494FF09040FFF719FF04212548FFF72FFF042224492548FFF7D6FF244A137843F0020313701032137843F002031370204C2378B5
:4004000043F040032370A2F58632513A137843F01003137008221B491B48FFF7BBFF0A221A491B48FFF7B6FF08221A491A48FFF7B1FF082219491A48FFF7ACFF194A137835
:4004400043F008031370184D61232B70FFF7FCFE81232B70FFF756FF0E2221461348FFF799FF38BDE84600406462000090000048007600407C04004808760040035001406C
:40048000A0430040580400480251004060040048F05100406C0400481251004074040048225100402243004000480040B043004008B503F05BFE03680C2B00D1FEE7FEE741
:4004C00008B5094B1A681044084BC31AB3F5007F02DC054B186005E003F048FE0C2303604FF0FF32104608BDCC80FF1FD082FF1F08B5104E104D16E029686B68AC680022FB
:4005000004E051F8040B43F8040B0432A242F8D1E868002203E0002143F8041B04328242F9D11035013E002EE6D103F025FEFFF7ABFDFEE7010000006867000008B5114AD4
:40054000114B1A60114A136843F40073136000230AE0032B03D80E4A52F8231000E00D490D4A42F8231001332F2BF2D90B4B1A780B4B1A70084A0B4B1A60FFF70FFF01F095
:40058000D1F908BD0004FA050CED00E014ED00E000000000B10400000080FF1FBC760040C080FF1F08ED00E0F8B501F045FD0746404A137843F0010313701032137843F0FB
:4005C0000103137001263C4B1E700225943B1D7002F5E2521B32137803F07F031370002001F098FA354C237803F0F9032370344A137803F0DF0313702378334323703046FE
:4006000001F088FA282001F085FA2E4B1A7802F07F021A701A7802F0BF021A7023782B432370284601F076FA237843F0040323700023254A137001321370384601F000FDAE
:400640000721172001F084FA2049172001F06CFA0721182001F07CFA1D49182001F064FA0721152001F074FA1A49152001F05CFA0721304601F06CFA1749304601F054FA5C
:400680000721284601F064FA1449284601F04CFA0721032001F05CFA1149032001F044FA07210C2001F054FA0E490C2001F03CFAF8BD00BFA54300409D60004094430040E8
:4006C00012600040F851004084600040BD0F0000A50D0000B90F0000190F0000490F00007D0F0000C50F000008B5214B18700023204A1370204A1370204A1370204A1370ED
:40070000204A1370204A1370204A1370204B4FF400021A604FF080721A604FF400121A6002221A6004221A6008221A6011B1012906D00BE0174A137803F0FE0313700AE072
:40074000144A137843F00103137004E0114A137843F00103137003220F4B1A708022203B1A70012001F060FC04220C4B1A7008BD7282FF1F7A82FF1F8082FF1F9282FF1F0A
:400780000382FF1F7182FF1F7082FF1F7682FF1F00E100E009600040286000401260004038B504460D46064B1B7823B9FFF7FCFE0122034B1A7029462046FFF795FF38BDF2
:4007C000C481FF1F00230A4A13700A4A13700A4A13700A4A13700A4A13700A4A13700A4A13700322094B1A708022203B1A7070477A82FF1F8082FF1F9282FF1F0382FF1F42
:400800007182FF1F7082FF1F7682FF1F2860004000EB40008300024A13445878704700BF0482FF1F431EDBB2072B3CD8F0B4074600EB4004A3001C4C2344DB889BB2C3F550
:4008400000739A4208D900EB400293002344DA8892B2C2F5007292B200EB4004A300124C2344DB7843EA1223104D04012E192B55D3B2737039B909E0CE5C3D010C4C6655DB
:4008800001339BB200E000239A42F5D8420002449300054A134400225A705A79D2B20001044B1A54F0BC70470482FF1FFC5F004078600040FE5F00400246002001E0013078
:4008C00080B2135C002BFAD1704700BF10B4FF2400230EE0094AD25C02EB42029100084A11448A7AD2B2824201D11C4602230133DBB2012BEED9204610BC7047EC81FF1F3C
:400900000482FF1F10B5204C2079FFF7DFFF237813F0800F0ED06378DBB2212B2FD11B4B07221A80C0EBC000194A1044586000F0A7FA10BD144B5B78DBB2202B02D0222B2C
:4009400010D01EE0114A07231380C0EBC00310490B4453600F4A135C43F00103135400F0B7FA10BD084B9B780B4A22F81030094A135C43F00203135400F040F910BD002058
:4009800010BD002010BD00BF006000408482FF1FD080FF1FE881FF1FFC81FF1F2DE9F8438046234B1B78234AD65CF6B2FFF784FF05460027344606EB460293001E4A13441B
:4009C0001B899BB29D4209D906EB460293001A4A1344B3F808901FFA89F900E0A9464A4608EB07013046FFF71DFFC9EB0505ADB245B906EB460293000F4A13441B899BB276
:400A0000994510D14F44BFB204EB440293000A4A13445B7813F0FF0FF6D025B9002211463046FFF7FFFE002DC4D1BDE8F88300BFC581FF1FF481FF1F0482FF1F08B5034BCF
:400A40001B78034AD05CFFF7E3FE08BDC581FF1FF481FF1FC37803F0030390F9020000280FDA032B06D002F001030B48C15442F001020EE0C2F380030848C15442F00402AD
:400A800007E0032B05D0C2F340030548C15442F002021046704700BFF481FF1FEC81FF1FF081FF1F1D4B19781D4A13889BB20B449BB2138000220FE01A494B681B78DBB285
:400AC000194883544B6801334B600132D2B20B889BB2013B9BB20B80124B1B889BB20BB1072AE9D90D4B1B78DBB2082B00D05AB10E490B7883F080030B700F210C4B1970A4
:400B000002210C4B197004E0022309490B7009490B70094B1A70014B1A7070477682FF1F7882FF1F8482FF1F006000408182FF1F0282FF1F7A82FF1F8282FF1F0222074B3D
:400B40001A708022064B1A700F22064B1A700023054A1370054A1370012070477A82FF1F8182FF1F0282FF1F7682FF1F8282FF1F08B5FFF797FF08BD10B4194B197801F0F6
:400B80000F010239C9B2174A13889BB20B449BB21380002011E0144A5468144B1B5CDBB223705368013353600130C0B20139C9B213889BB2013B9BB213800B4B1B889BB292
:400BC0000BB10029E7D10A4B19700A4A137883F0800313700B22084B1A7010BC704700BF296000407882FF1F8482FF1F006000408282FF1F8182FF1F0282FF1F0623064AD3
:400C00001370064A13708022054B1A700022054B1A700120704700BF7A82FF1F0282FF1F8182FF1F8282FF1F064B9B6843B1054B9A6810709A6804490988518000229A6069
:400C4000704700BF8482FF1F7882FF1F08B5134B1A78D2B21A701B78DBB213F0800F02D00F4A137008BD0220FFF7DEFF0D4B1B7803F06003202B05D0402B06D043B900F05F
:400C800093FC06E001F0E0F903E000F037FE00E0002010B90322024B1A7008BD286000400282FF1F0060004008B5094B1978094A13889BB20B449BB213800022064B1A7050
:400CC0000120FFF7B1FF0322044B1A7008BD00BF7682FF1F7882FF1F7A82FF1F0282FF1F08B50B4B1B78DBB2042B06D0062B07D0022B0BD1FFF7D8FF08BDFFF73DFF08BDEF
:400D00000320FFF791FF0322024B1A7008BD00BF7A82FF1F0282FF1F08B50022044B1A700120FFF781FF0322024B1A7008BD00BF7A82FF1F0282FF1F08B50B4B1B7813F09A
:400D4000FF0F07D0084A137843F0800307490B70002313700022064B1A700120FFF764FF0322044B1A7008BD7182FF1F086000407A82FF1F0282FF1F08B5094B1B78DBB2AA
:400D8000042B06D0062B07D0022B07D1FFF7F0FE08BDFFF7C1FF08BDFFF7CEFF08BD00BF7A82FF1F08B5284B1B78DBB213F0100F48D013F0800F0CD003F00F03012B16D18C
:400DC000FFF744FF214B1B7813F0800F11D1012312E013F0400F03D0FFF7CEFF01230BE013F0200F07D0FFF77BFF012304E0002302E0002300E0002323B3134B1B7813F0C4
:400E0000800F1FD1124B1B78124A12781343124A13701278D2B2934214D10C4B1B78DBB2094A127812F0800F07D1084B1B78DBB2054A1370137803F00F03044A1278D2B272
:400E40009342EAD108BD00BF286000400282FF1F8182FF1F8282FF1F296000400022064B1A80064B9B682BB1044A916800230B7092685380704700BF7882FF1F8482FF1F47
:400E800008B50F4B1B889BB213B9FFF757FE15E002220C4B1A7000220B4B1A70FFF7DEFF0A4AD179937943EA0123054A128892B2934201D2024A1380FFF7F4FD012008BDC9
:400EC0008482FF1F7A82FF1F8182FF1F0060004008B504220B4B1A7080220B4B1A70FFF7BDFF0A4AD179937943EA0123084A128892B2934201D2064A13800B22054B1A703F
:400F0000012008BD7A82FF1F8182FF1F006000408482FF1F0282FF1F0122094B1A700F3B9B7C084B1B7B03F00303934204D0054AD37B83F08003D3730122024B5A73704770
:400F40000B6000400482FF1F02220A4B1A700F3B93F82230084B1B7E03F00303012B04D0054AD37E83F08003D3760122024B5A76704700BF0B6000400482FF1F04220C4BB2
:400F80001A700F3B93F832300A4B93F8243003F00303012B06D0074A92F8273083F0800382F827300122034B83F82520704700BF0B6000400482FF1F704700BF08B5FFF729
:400FC00001FC08BD08B500F0A5FC08BD70B588B0054603AC174E0FCE0FC43368237035B322232B7003236B7001A800F0C9FD002402231AE008AA224412F81C2C08A901EB10
:40100000121111F8141CE954581C00212954981C02F00F0208AE324412F8142C2A54DA1CA9540134E4B20433DBB2212BE2D908B070BD00BF9062000010B401233EE01946D6
:401040001A010C242148845403EB4300820020480244527912F0FF0F13D003EB430082001B480244127912F0800F04D01801194A024494700AE01801164A024408209070E2
:4010800004E01801134A0244802090704800084482000F480244D488E4B208010B4901448C71D088C0F30720C871D088C0B20871D288C2F307224A710133DBB2082BBED980
:4010C000FF22054B1A7010BC704700BF706000400482FF1FFC5F00400A600040074B1A78074B03EBC2035B681A7C824204D9C0001030184440687047002070477282FF1F33
:40110000A4620000F8B5404B1B7813F0FF0F79D03D4B18780138C0B2FFF7E0FF047AC2683A4B1878C0B200236AE01178884264D13749095CC9B25578A9425ED1917801F087
:401140007F01D67806F00306DFF8C8E04D000D44AF000EEB07054FF0000C85F803C092F802C085F804C092F803C00EF807C097882F8192F90250002D0DDA012E01D10727B0
:4011800000E00D274E000E44B500224E35446F7101266E700CE0012E01D1052700E009274E000E44B5001B4E35446F7100266E70DFF868E00F010EEB07060125B57001FA39
:4011C00005F529448D00134929440D89C5F307250EF807500D89EDB27570CE88F6B20E4D3D44AE71CE88C6F30726EE71CE88F6B22E71C988C1F30721697108320133DBB20E
:40120000A34292D3F8BD00BF9282FF1F0382FF1F7482FF1F0482FF1F70600040FC5F0040034B1A78034B03EBC2035868704700BF7282FF1FA462000008B5084B18780138B0
:40124000C0B2FFF74BFF30B142681279023200EBC203586808BD002008BD00BF9282FF1F2DE9F047002310E0724D5900CA189600AC190022AA55A270E2702281A2726270A4
:4012800034462C4462710133DBB2082BECD940B90AE000226849CA546849CA540133DBB200E00023012BF4D9654B1B7813F0FF0F00F0BD80624B18780138C0B2FFF70EFFEC
:4012C00080464368DB7913F0400F05D05D4A137843F00103137004E05A4A137803F0FE03137098F808704FF0000A01266FE0D8F80C50002467E0AB7803F07F039E425FD186
:40130000314606EB460083004A4803441B899BB2A888834206D206EB460E4FEA8E03454A134418812B784448C35CDBB26878834246D195F802C0DFF8FCE04B000B4498008C
:401340000EEB000383F804C0EB780EF80030EB7803F0030395F90200002813DA012B02D14FF0070901E04FF00D09DFF8C8E04B0003EB010C4FEA8C00704480F805900121A7
:40138000417012E0012B02D14FF0050901E04FF00909DFF8A0E04B0003EB010C4FEA8C00704480F8059000214170AB790A2B01D0022B05D1524631462846FFF74BFB824669
:4013C00008350134E4B2BC4295D30136F6B2082E8DD9D8F80C0000220CE0837803F07F0310F8084B03EB43039900124B19448C720132D2B2BA42F0D3FFF71EFF124B18606C
:40140000002301210FE00B4D4A00501884002C44E380228992B213449BB203F0010213449BB20131C9B20829EDD9FFF705FEBDE8F08700BF0482FF1F7482FF1F0082FF1F1A
:401440009282FF1F7082FF1F7C82FF1F08B5154B1B7903F07F035A1ED2B2072A20D8590019448A0010490A44917841F0010191700021D170517841F002015170127912F0F2
:40148000800F05D01B01094A1A448D23937004E01B01064A1A4489239370FFF7AFFB08BD002008BD006000400482FF1FFC5F0040274B1B7903F07F035A1ED2B2072A44D8FE
:4014C00010B5590019448A0022490A44917801F0FE0191700021D1701F4C1801215C01F07F012154517801F0FD015170127912F0800F13D003EB43018A0016490A44527840
:40150000D2B2012A04D1224602440C23937019E01B01114A1A440D23937013E003EB43018A000C490A445278D2B2012A05D11B01094A1A440823937004E01B01064A1A44FC
:4015400009239370FFF75AFB10BD0020704700BF006000400482FF1FFC5F004010B50E4B1C79E4B20D4B18780138C0B2FFF7B6FD43681B799C4201D9022C0AD8084A135D61
:40158000DBB208490B55044B9B78DBB21355012010BD002010BD00BF006000409282FF1F7482FF1F0082FF1F10B59C4B1B78DBB200219B4A118013F0800F00F0AD80974A83
:4015C0005278D2B20A2A00F27481DFE812F06900720172017201720172010B007201920072019A008D4BDB78DBB2012B09D1FFF717FE42688A4B5A6012221A80FFF740FCF2
:4016000010BD864BDB78DBB2022B13D1834B9878FFF764FD002800F04E814268804B5A605A68D1785A68927842EA01221A80FFF727FC10BD794BDB78DBB2032B05D02CE077
:401640000A7811440133DBB201E000237549734A9278D2B2934203D20A7812F0FF0FEFD16E4B9B7813F0FF0F0BD06C4B9B78DBB26D4A127C934204D16C4C2046FFF7A6FC15
:4016800021460B7813F0FF0F00F017810B78644A13805160FFF7F4FB10BD00F0D5FC10BD13F0030317D0022B40F009815C490B805A4B1B7903F07F0303EB43039A005C4BC8
:4016C0001A449278D2B25B4B1A7000225A704B60FFF7D6FB10BD524902230B80564B1A78D2B2544B1A7000225A704B60FFF7C8FB10BD4B4B01221A80504A5A60FFF7C0FB03
:4017000010BD474A01231380444B1B794C490B445360FFF7B5FB10BD404A5278013A0A2A00F2CF80DFE812F04C00CD009800CD000B00CD00CD00CD001300CD003000374B18
:401740009B78DBB23F4A1370FFF758FA10BD334B9B7803F0FF041BB1601EC0B2FFF7BEFC04B110B9002C40F0AE80344B1B78DBB29C4206D0314B1C700120334B1870FFF735
:401780006FFDFFF73BFA10BDFFF7E8FE002800F09C80224A1379DBB21279D2B22B490A702B4AD25CD2B22649CB5CDBB29A4204D00122254B1A70FFF7A5FCFFF71FFA10BDA9
:4017C00003F00303012B17D04BB1022B7FD1134B9B7813F0FF0F7CD1FFF76AFE10BD0F4B9B78DBB2012B76D1134A137803F0FD031370FFF703FA10BD084B1B79DBB2012B3F
:401800006BD8064B98781B79DBB21249CA5C22EA0002CA54FFF7F2F910BD00BF006000408482FF1F0C630000F0630000A882FF1F0482FF1FC881FF1F7082FF1F9282FF1FAE
:401840007482FF1F7182FF1F8082FF1F0382FF1F0082FF1F9082FF1F03F00303012B17D04BB1022B3BD1224B9B7813F0FF0F38D1FFF7ECFD10BD1E4B9B78DBB2012B32D1F1
:401880001C4A137843F002031370FFF7B7F910BD174B1B79DBB2012B27D8154B98781B79DBB21549CA5C22EA0002CA54FFF7A6F910BD002010BD002010BD002010BD0020D1
:4018C00010BD002010BD002010BD002010BD002010BD002010BD002010BD002010BD002010BD002010BD002010BD002010BD00BF006000407082FF1F9082FF1F044B1B786B
:4019000013F0800F01D0024B5B780020704700BF00600040024B1878C0F38010704700BF8F4500400B4A7F2313708021517007E0DA0002F1804202F5F042013BDBB213707D
:40194000002BF5D1DB0003F1804303F5F04300221A707047EC80FF1F172815D831B103010A495A5C42F020025A5405E0030107495A5C02F0DF025A540001044A835C43F0DE
:401980000103835400207047012070471070004017280CD80001074BC1180A7942F004020A71C25C42F00102C254002070470120704700BF1070004017280BD80001064A4E
:4019C000835C03F0F103490001F00E011943815400207047012070471070004041F6FF73994201D14FF4005141F6FF739A4201D14FF40052172808D8C00000F1804000F5DD
:401A0000EC408180C280002070470120704700BF172805D8034B03EB0010417200207047012070471070004017281BD810B4C00000F1804404F5EC44D201D2B201F07F01E3
:401A4000114321709DF804201201D2B203F00F03134363709DF8083003F00F03A3700020E07001E00120704710BC704710B500F0E3FA0A4B5B78182B0BD9084A1478013B77
:401A80005370E30003F1804303F5F0431B78137000E0FF2400F0D4FA204610BDEC80FF1F10F0800F0CD111F4704F0BD1C00000F1804000F5F04001808270C37000207047EB
:401AC000012070470120704710F0800F08D1C00000F1804000F5F0408180C280002070470120704701BE704710B5044605E0084B186800F099FAA4F50044B4F5004FF6D8E3
:401B0000034B586800FB04F000F08EFA10BD00BFF480FF1F08B5034B1B7A00FB03F000F083FA08BDF480FF1F70B504460E46074B1D681F2802D90020FFF7D4FF04F01F0404
:401B4000103455F8240045F8246070BD08ED00E038B504460D46072902D90020FFF7C2FF1F2C02D90020FFF7BDFF04F01F0000F1604000F564406D01EDB2057038BD00BF16
:401B8000134B1B78DBB20360124A127843EA02230360114A127843EA024303600F4A127843EA026303600E4B1B78DBB243600D4A127843EA022343600B4A127843EA0243D4
:401BC00043600A4A127843EA02634360704700BF0301004904010049EC4600400201004901010049000100490501004906010049054A137843F0040313701032137843F095
:401C000004031370704700BFA8430040054B1A7802F0FD021A701A7800F0020010431870704700BF28580040014B1870704700BF825B0040064B1B78C3F3810303F1924339
:401C4000063393F82831DBB2024A1370704700BF285800400A46004008B5064B1A7802F0F3021A701A7800F00C0010431870FFF7E1FF08BD2858004010B50024054B1C708B
:401C800001331C702046FFF7E7FF2046FFF7BEFF10BD00BF2858004008B5074B1B7823B9FFF7EAFF0122044B1A70FFF7A1FF6420FFF7BAFF08BD00BFCA81FF1F10B541F6B2
:401CC000FF734FF480420121022000F061F9084C207041F6FF731A460121062000F076F96070044800F090F9002000F093F910BDCC81FF1F291E000070B52C4C2078FFF770
:401D000047FE6078FFF744FE294B1B78FF2B03D1FFF7ACFE264B1870254D2878062302461946FFF7BDFE214E341DA4B2224645F6A0312878FFF7C8FE29783078FFF768FE92
:401D40006B78FF2B02D1FFF791FE6870184D6878072302460621FFF7A3FE164A92B221466878FFF7B1FE114C69786078FFF750FE01212078FFF7F0FD01216078FFF7ECFD51
:401D800000F05AF90C4A137843F02003137000F057F90A4B1A7842F001021A701A7842F002021A700122064B1A6070BDCC81FF1F0481FF1F9482FF1F9B6400407C64004032
:401DC00080E200E008B5074BDB6823B9FFF776FF0122044BDA6000F0C5F8FFF78DFF024B1B7808BDCC81FF1F6D64004008B500F0C7F808BD044B1B7803F0FF020BB9002819
:401E0000F8D01046704700BF6D640040C0F10200034B33F91030034A1088181A00B270479482FF1FA482FF1F704700BF08B50A280FD00C2802D0082806D102E04FF4805250
:401E400009E04FF4807206E00020FFF74BFE002201E04FF480620021094B198042F2107303FB02F303F6C413064A82FB0302DB17C3EBE223044A1360044B198008BD00BFAB
:401E8000A682FF1FAD8BDB68A082FF1FA482FF1F10B500F0D1F80446184A137843F0010313701032137843F00103137002F5AA520832137843F0030313701822104B1A7054
:401EC000013B1A7842F040021A701A7802F0FC021A70C822053B1A700222A3F597530C3B1A70084A137843F0080313700A20FFF711FE204600F0A4F810BD00BFAB43004066
:401F000006590040275B004010B504460A280DD00C2802D0082804D101E0C22207E0422205E00020FFF7DEFDC22200E08222034B1A702046FFF77AFF10BD00BF02590040F5
:401F400008B5064A137843F0060313700C20FFF7DBFF0022024B1A8008BD00BF015900409C82FF1F08B5054B1B7823B9FFF7E8FF0122024B1A70FFF78BFF08BDDC81FF1F98
:401F8000024A137843F001031370704700590040F0B583B016461F460B4C012525700023019300932B460A4601462846FFF73CFD3A4631462078FFF711FD02212078FFF762
:401FC000FBFC207803B0F0BD0681FF1FF0B583B016461F460B4D00242C700194009423460A4601462046FFF71FFD3A4631462878FFF7F4FC02212878FFF7DEFC287803B098
:40200000F0BD00BF0781FF1F014B1B681864704708ED00E04001C0B2014B1870704700BF00E400E0000000000230800803D000BF01380046FCD17047EFF3108072B6704756
:4020400080F31088704700BF08B5144B1B7803F00303012B02D0022B04D00FE00F4B1B79DBB20CE00D4B1B7903F07F0303EB43039A000B4B1A44937ADBB200E00023022B35
:4020800007D8084A1268D35C022B04D1FEF73AFC08BD002008BD002008BD00BF006000400482FF1F7C82FF1F30B5214A21F00043934287B01BDD1F4A934205DD02460B460A
:4020C00001F030F907B030BD02AA00F035F800F0030001281ED0022811D0DDE9042300B3DDE9020100F040FA01F10041EAE7002300930022002300F053FF07B030BD0123A8
:402100000093DDE90201DDE9042300F049FF01F10041D7E7DDE90423DDE9020100F024FAD0E70124DDE90201009400F039FFC9E7FB21E93FFFFFEF7F2DE9F04F944C21F062
:402140000047A7428FB040F381801446914A0E46974226DC84A3D3E90023002940F3A08101F0E0F88C4B80469F42894600F083807FA3D3E9002301F0D5F802460B464046EE
:40218000C4E90023494601F0CDF879A3D3E9002301F0C8F80125C4E9020128460FB0BDE8F08F7E4A974240F383807D4A974258DC3D15A5F21645A7EB05518B46824601F0D6
:4021C000FFFC01F0FDF98046894642464B4650465946CDE9088901F0A5F80022714B01F055FA8B46824601F0EBFC01F0E9F98046894642464B4650465946CDE90A8901F0C6
:4022000091F80022674B01F041FA00220023CDE90C0101F0A3FC002800F06A81002340464946002201F09AFC002814BF012302235D480221019000912A46214608A800F0F4
:40224000B7FA002EC0F24A81054606E0C2E9000100250024C2E90245002528460FB0BDE8F08F02460B4601F05DF80025C4E90201C4E90001F1E740A3D3E9002301F052F83D
:402280003FA3D3E9002306460F4601F04BF802460B463046C4E90023394601F043F838A3D3E9002301F03EF80125C4E90201D4E700F02CFF34A3D3E900238046894601F035
:4022C000E5F90022394B01F02FF801F079FC054601F076F924A3D3E90023CDE9040101F0D5F902460B464046494601F01BF820A3D3E9002382468B46DDE9040101F0C6F9A9
:402300001F2DCDE9020155DC294B6A1E53F822309F424FD002460B465046594601F002F802460B4681468846C4E900234A4643465046594600F0F6FFDDE9022300F0F2FF18
:4023400002460B46002EC4E9022386DA4A4608F1004301F1004184E80C00E160A0606D427BE700BFAFF3008000004054FB21F93F3163621A61B4D03D0000601A61B4D03D04
:402380007370032E8A19A33B83C8C96D305FE43FFB21E93F7BD90240FB21F93FFB213941FFFFEF7F00007041846400000000E03F04640000DDE902235046594600F0B2FF44
:4023C0003F15C1F30A53FB1A102B81468846C4E90001ABDD58A3D3E90023DDE9040101F055F98046894602460B465046594600F099FFCDE9060102460B465046594600F013
:4024000091FF42464B4600F08DFF4DA3D3E9002380468946DDE9040101F038F942464B4600F080FF02460B46CDE90201DDE9060100F078FF0B4602468846C1F30A517F1A09
:40244000312F8146C4E9002372DD3FA3D3E90023DDE9040101F01AF98046894602460B46DDE9060100F05EFF02460B4682468B46DDE9060100F056FF42464B4600F052FFA0
:4024800033A3D3E9002380468946DDE9040101F0FDF842464B4600F045FFCDE9020139E700F042FF2E4B80469F42894622D02AA3D3E9002300F038FF02460B464046C4E94A
:4024C0000023494600F02EFF23A3D3E9002300F02BFF4FF0FF35C4E90201BEE66268E36802F1004203F1004345426260E360B4E603239DE610A3D3E9002300F015FF10A3EE
:40250000D3E9002306460F4600F00EFF02460B463046C4E90023394600F004FF08A3D3E9002300F001FF4FF0FF35C4E9020194E6DDE906ABFAE600BF0000601A61B4D03D04
:402540007370032E8A19A33B0000002E8A19A33BC14920259A837B393163621A61B4D03DFB21F93F000000002DE9F04F21F00046B6F1795F85B00C4692469B4605466BDA76
:4025800001F01EFB002800F0E7802A4623462846214601F07BF874A3D3E900238046894601F074F872A3D3E9002300F0BDFE42464B4601F06BF870A3D3E9002300F0B2FEFA
:4025C00042464B4601F062F86DA3D3E9002300F0ABFE42464B4601F059F86BA3D3E9002300F0A0FE42464B4601F050F868A3D3E9002300F099FE42464B4601F047F8CDE957
:4026000000010022644B4046494601F03FF8DDE9002306460F464046494601F037F85246804689465B462846214601F02FF802460B464046494600F075FE02460B463046F1
:40264000394600F06FFE02460B460020534900F069FE05B0BDE8F08F02460B4601F016F841A3D3E900238046894601F00FF840A3D3E9002300F058FE42464B4601F006F801
:402680003DA3D3E9002300F04DFE42464B4600F0FDFF3BA3D3E9002300F046FE42464B4600F0F4FF38A3D3E9002300F03BFE42464B4600F0EBFF36A3D3E9002300F034FE7E
:4026C0004B46424600F0E2FF354BCDE900019E4297DD344B00229E4238DCA6F5001300202E4916461F4600F01DFECDE902010022294B4046494600F0C9FF32463B4600F0BA
:4027000011FEDDE9002306460F464046494600F0BDFF5246804689465B462846214600F0B5FF02460B464046494600F0FBFD02460B463046394600F0F5FD02460B46DDE993
:40274000020100F0EFFD05B0BDE8F08F164B0026CDE90223154FCAE71049002005B0BDE8F08F00BFAFF30080D43888BEE9FAA8BDC4B1B4BD9EEE213EAD529C804F7E923ED4
:402780009015CB19A001FA3E7751C1166CC1563F4C5555555555A53F0000E03F0000F03F3233D33F0000E93F0000E73F0000D23F2DE9F04F794CADF51D7D1F460B93D31E0F
:4027C00084FB0354DB17C3EBA403A69E744C23EAE37554F826406B1C26460994A3EB83037C1E0D95029402EBC3032D1B341904900A91089316D42C44013422AEA79F08E08C
:4028000057F8250000F0DCFE0135A542E6E9020108D0002DF4DA013500200021A542E6E90201F6D1099B002B2FDB099B74AADDF8089002EBC30B0DF5E47A029B002BC0F204
:4028400095810B9B0026C3EB090824AB03EBC808049B0027A3F1080524AB03EBC904F5E9022374E8020100F011FF02460B463046394600F059FD444506460F46EFD1EAE946
:402880000267DA4509F10109D7D1099B10A91D4603F18043023B9B001A1D0A440B440F920E939CAB03EBC503002D53E928672BDD9CAB03EBC504A83C0DF13C0A0DF5E47BFB
:4028C0000022384B3046394600F0E0FE01F078F900F076FE0022344B8046894600F0D6FE02460B463046394600F01CFD01F068F974E802234AF8040F4946404600F014FDDB
:402900005C4506460F46DBD1089C30463946224600F08AFC00224FF07F5306460F4600F0B5FE00F0F9FB0022204B00F0AFFE02460B463046394600F0F5FC0F46064601F0AC
:402940003FF9814600F03CFE02460B463046394600F0E8FC002C06460F4640F3EE80681E10AB53F82030C4F1180243FA02F101FA02F29B1AC4F1170810AA42F820308944FA
:4029800043FA08F8B8F1000F3DDD002D09F1010940F3D382002214460FA911E0ABAAAA2A8C6500000000703E0000704100002040C3F180700BB108600124013295420DDD70
:4029C00051F8043F002CF3D0C3F1FF13013203F57F4395420B604FF00104F1DC089B002B0DDD012B00F0B180022B08D16A1E10AB53F8223010A9C3F3150341F82230B8F1B0
:402A0000020F00F08180002200233046394601F0A5F8002800F05B82099B05F1FF3B5B4510DC05F1804310AA013B0F9802EB8303002253F80419834242EA0102F9D1002A3C
:402A400040F0B180099B10AA013B52F82330002B40F071820E9A012352F8041901330029FAD0E9186A1C8A420C914BDC0D990B985118DB0001F180410593A79B0544013962
:402A8000E80003EB810A24ABD20003EB000B74AB13440193A2F10803069007934FF000095AF8040F00F08CFD029BEBE80201002B4FF000064FF000071BDB069B03EB090462
:402AC000079B09EB030824AB1C449844049BA3F10805F5E9022374E8020100F0D7FD02460B463046394600F01FFC444506460F46EFD1019B09F10809E3E802670193059B32
:402B00009945CDD10C9DCCE632463B460020B04900F008FC06460F46002C3FF474AF089A0020AB4900F080FB02460B463046394600F0F8FB06460F4665E710D16B1E10AAF2
:402B400052F823304FEAE3581CE76A1E10AB53F8223010A9C3F3160341F822304FE700229C4B01F019F858B980464CE700260027EAE90267DA4509F101097FF45EAE84E66E
:402B8000002D09F10109C8BF4FF002083FF702AF32463B4600208E4900F0C4FB4FF0020806460F462FE7089A10AB53F82B30183ACDF81490CDF8048008926BB90BF180430A
:402BC000013B10A901EB830353F804190BF1FF3B183A0029F8D00892089A00207C4900F023FBBBF1000F04460D46C0F2B6814FEACB030DF5E87810AA02EB8B0608EB03097D
:402C00000493043609F1080756F8040D00F0D8FC22462B4600F03AFD002267E902016E4B2046294600F032FDB84504460D46EBD14B46CDF818B09B460DF5987ACDF808A09F
:402C4000DDF824A04FF00009BAF1000FC0F226815DA3D3E90023DFF884815D4600260027002403E0A14510DBF8E90223F5E8020100F00CFD02460B463046394600F054FB31
:402C80000134A24506460F46ECDA029BABF1080B03EBC903C3E9006772AB5B4509F10109D2D1A69BDDF818B0DDF808A0032B00F28380DFE813F0D100950095000400BBF121
:402CC000000F40F35481049BCDF808B053449846D3E90067D34658E9029A32463B464846514600F021FB04460D4602460B464846514600F017FB32463B4600F015FBC8E9E2
:402D0000000168E90245C34526462F46E3D1DA46DDF808B0BBF1010F40F32981049B0DF59C7B53449846D3E90067994659E902343046CDE902341A463946234600F0F4FAE8
:402D400004460D4602460B46DDE9020100F0EAFA32463B4600F0E8FAC9E9000169E90245CB4526462F46E1D100231D4608F1080850AC184678E90223294600F0D5FA4445A0
:402D800003460D46F5D1019A002A00F0D880DAF80440DAF80C200A9FDAF80010DAF8080005F1004504F1004402F100427D613B617C60FA603960B860059B03F007000DF585
:402DC0001D7DBDE8F08F00BF00000040FB21F93F0000F03F0000E03F0000703EA065000000242146049D0835554475E90223204600F09AFA55450446F7D1019B002B50D0BF
:402E00000A9F01F100450B46DAE9000187E83000224600F087FABBF1000F03460D460DDD01241846FAE90223294600F07DFA0134A34503460D46F4DA019A0AB105F100456B
:402E4000184629460A9BC3E90201059B03F007000DF51D7DBDE8F08F00231C46049A0832924418467AE90223214600F05DFA0BF1FF3BBBF1FF3F03460C46F2D1019A0AB13C
:402E800004F10044184621460A9BC3E90001059B03F007000DF51D7DBDE8F08F00260027F3E626460F4622460A9C0B46DAE90001C4E9006700F036FABBF1000F03460D46D3
:402EC000AEDC184629460A9BC3E90201BDE7089B30465A423946CDF81490CDF8048000F0A3F900222C4B06460F4600F055FE002840D00022294B3046394600F0C7FB00F02F
:402F00005FFE044600F05CFB0022234B00F0BEFB0B4602463946304600F004FA00F050FE089B05F1010B1833089310AB43F8250043F82B4050E6012393E500244EE51846DD
:402F4000DAE90067DAE9022329460A9DC5E90067C5E90401C5E902232EE7A69B032B3FF62BAFDFE803F0151010020DF5987A00231D4608E73046394600F022FE10ABAB46D0
:402F800043F8250028E6002421460DF5987A34E700231C4672E700BF000070410000703E2DE9F04F21F00046B6F1795F85B00C4690469946054604DA00F002FE002800F055
:402FC00085802A4623462846214600F05FFB06460F4602460B462846214600F057FB3EA3D3E9002382468B463046394600F04EFB3BA3D3E9002300F095F932463B4600F0D8
:4030000045FB39A3D3E9002300F08EF932463B4600F03CFB36A3D3E9002300F083F932463B4600F033FB34A3D3E9002300F07CF90E9BCDE900019BB30022334B4046494645
:4030400000F024FBDDE90023CDE902015046594600F01CFB02460B46DDE9020100F062F932463B4600F012FB42464B4600F05AF923A3D3E9002306460F465046594600F0F9
:4030800005FB02460B463046394600F04DF902460B462846214600F045F905B0BDE8F08F02460B463046394600F0F0FA14A3D3E9002300F037F952465B4600F0E7FA2A463F
:4030C000234600F031F905B0BDE8F08F2846214605B0BDE8F08F00BF7CD5CF5A3AD9E53DEB9C2B8AE6E55A3E7DFEB157E31DC73ED561C119A0012A3FA6F810111111813F76
:40310000495555555555C53F0000E03F21F00041704700BF00000000C1F30A522DE9F843A2F2FF36132E0B4604460D46884607461CDC002E3FDB3A4A864642FA06F901EA88
:403140000902024317D034A3D3E9002300F0ECF80022002300F02AFD20B1002D40DB28EA0905002738462946BDE8F883332E06DDB6F5806F2FD020461946BDE8F883A2F26F
:4031800013424FF0FF3929FA02F910EA090FF2D021A3D3E9002300F0C7F80022002300F005FD0028DED0002D20DB454627EA090738462946D8E718A3D3E9002300F0B4F83C
:4031C0000022002300F0F2FC0028CBD0002D18DB00273D46C6E702460B4600F0A5F8CCE74FF4801343FA06F6B044B8E7142E10D00123C6F1340603FA06F6371928BF9844B4
:40320000D3E725F00042074B224318BF1D460027A8E705F10108C8E79C7500883CE4377EFFFF0F000000F0BFF8B5C1F30A5604460D460B46174606BB21F00043034325D0A2
:4032400000222F4B00F022FA2E4A044697420D460B462ADBC1F30A56363E40F2FE723E44964228DC002E12DD23F0FF4323F4E00343EA065520462946F8BD40F2FF729642E1
:40328000EBD102460B4600F04FF8F8BDF8BD16F1350F1DDA4CF250339F420CDC14A1D1E9000122462B4600F031F811A3D3E9002300F0ECF9F8BD22460FA1D1E900012B4689
:4032C00000F024F80CA3D3E9002300F0DFF9F8BD23F0FF4323F4E003363643EA0655204629460022084B00F0D1F9F8BDAFF3008059F3F8C21F6EA5019C7500883CE4377EF2
:4033000000005043B03CFFFF0000903C03F0004321F0004242EA0301704700BF81F0004102E000BF83F0004330B54FEA41044FEA430594EA050F08BF90EA020F1FBF54EA28
:40334000000C55EA020C7FEA645C7FEA655C00F0E2804FEA5454D4EB5555B8BF6D420CDD2C4480EA020281EA030382EA000083EA010180EA020281EA0303362D88BF30BD56
:4033800011F0004F4FEA01314FF4801C4CEA113102D0404261EB410113F0004F4FEA03334CEA133302D0524263EB430394EA050F00F0A780A4F10104D5F1200E0DDB02FAC7
:4033C0000EFC22FA05F2801841F1000103FA0EF2801843FA05F359410EE0A5F120050EF1200E012A03FA0EFC28BF4CF0020C43FA05F3C01851EBE37101F0004507D54FF05A
:40340000000EDCF1000C7EEB00006EEB0101B1F5801F1BD3B1F5001F0CD349085FEA30004FEA3C0C04F101044FEA445212F5800F80F09A80BCF1004F08BF5FEA500C50F12D
:40344000000041EB045141EA050130BD5FEA4C0C404141EB010111F4801FA4F10104E9D191F0000F04BF01460020B1FA81F308BF2033A3F10B03B3F120020CDA0C3208DD01
:4034800002F1140CC2F10C0201FA0CF021FA02F10CE002F11402D8BFC2F1200C01FA02F120FA0CFCDCBF41EA0C019040E41AA2BF01EB0451294330BD6FEA04041F3C1CDA6A
:4034C0000C340EDC04F11404C4F1200220FA04F001FA02F340EA030021FA04F345EA030130BDC4F10C04C4F1200220FA02F001FA04F340EA0300294630BD21FA04F02946C0
:4035000030BD94F0000F83F4801306BF81F480110134013D4EE77FEA645C18BF7FEA655C29D094EA050F08BF90EA020F05D054EA000C04BF1946104630BD91EA030F1EBF99
:403540000021002030BD5FEA545C05D14000494128BF41F0004130BD14F580043CBF01F5801130BD01F0004545F0FE4141F470014FF0000030BD7FEA645C1ABF194610460F
:403580007FEA655C1CBF0B46024650EA013406BF52EA033591EA030F41F4002130BD00BF90F0000F04BF0021704730B54FF4806404F132044FF000054FF0000150E700BF5B
:4035C00090F0000F04BF0021704730B54FF4806404F1320410F0004548BF40424FF000013EE700BF42004FEAE2014FEA31014FEA02701FBF12F07F4393F07F4F81F06051EF
:40360000704792F0000F14BF93F07F4F704730B54FF4607401F0004521F0004120E700BF50EA010208BF704730B54FF000050AE050EA010208BF704730B511F0004502D592
:40364000404261EB41014FF4806404F132045FEA915C3FF4DCAE4FF003025FEADC0C18BF03325FEADC0C18BF033202EBDC02C2F1200300FA03FC20FA02F001FA03FE40EA6B
:403680000E0021FA02F11444C1E600BF70B54FF0FF0C4CF4E06C1CEA11541DBF1CEA135594EA0C0F95EA0C0F00F0DEF82C4481EA030621EA4C5123EA4C5350EA013518BF08
:4036C00052EA033541F4801143F4801338D0A0FB02CE4FF00005E1FB02E506F00042E0FB03E54FF00006E1FB03569CF0000F18BF4EF0010EA4F1FF04B6F5007F64F5407449
:4037000004D25FEA4E0E6D4146EB060642EAC62141EA55514FEAC52040EA5E504FEACE2EB4F1FD0C88BFBCF5E06F1ED8BEF1004F08BF5FEA500E50F1000041EB045170BDCE
:4037400006F0004646EA010140EA020081EA0301B4EB5C04C2BFD4EB0C0541EA045170BD41F480114FF0000E013C00F3AB8014F1360FDEBF002001F0004170BDC4F10004B6
:40378000203C35DA0C341BDC04F11404C4F1200500FA05F320FA04F001FA05F240EA020001F0004221F0004110EBD37021FA04F642EB06015EEA430E08BF20EAD37070BD7C
:4037C000C4F10C04C4F1200500FA04F320FA05F001FA04F240EA020001F0004110EBD37041F100015EEA430E08BF20EAD37070BDC4F1200500FA05F24EEA020E20FA04F36C
:4038000001FA05F243EA020321FA04F001F0004121FA04F220EA020000EBD3705EEA430E08BF20EAD37070BD94F0000F0FD101F00046400041EB010111F4801F08BF013C3E
:40384000F7D041EA060195F0000F18BF704703F00046520043EB030313F4801F08BF013DF7D043EA0603704794EA0C0F0CEA135518BF95EA0C0F0CD050EA410618BF52EA37
:403880004306D1D181EA030101F000414FF0000070BD50EA410606BF1046194652EA430619D094EA0C0F02D150EA013613D195EA0C0F05D152EA03361CBF104619460AD196
:4038C00081EA030101F0004141F0FE4141F470014FF0000070BD41F0FE4141F4780170BD70B54FF0FF0C4CF4E06C1CEA11541DBF1CEA135594EA0C0F95EA0C0F00F0A7F8E8
:40390000A4EB050481EA030E52EA03354FEA013100F088804FEA03334FF0805545EA131343EA12634FEA022245EA111545EA10654FEA00260EF000419D4208BF964244F17B
:40394000FD0404F5407402D25B084FEA3202B61A65EB03055B084FEA32024FF480104FF4002CB6EB020E75EB030E22BFB61A754640EA0C005B084FEA3202B6EB020E75EB16
:40398000030E22BFB61A754640EA5C005B084FEA3202B6EB020E75EB030E22BFB61A754640EA9C005B084FEA3202B6EB020E75EB030E22BFB61A754640EADC0055EA060E29
:4039C00018D04FEA051545EA16754FEA06164FEAC30343EA52734FEAC2025FEA1C1CC0D111F4801F0BD141EA00014FF000004FF0004CB6E711F4801F04BF01430020B4F1FA
:403A0000FD0C88BFBCF5E06F3FF6AFAEB5EB030C04BFB6EB020C5FEA500C50F1000041EB045170BD0EF0004E4EEA113114EB5C04C2BFD4EB0C0541EA045170BD41F4801106
:403A40004FF0000E013C90E645EA060E8DE60CEA135594EA0C0F08BF95EA0C0F3FF43BAF94EA0C0F0AD150EA01347FF434AF95EA0C0F7FF425AF104619462CE795EA0C0F9F
:403A800006D152EA03353FF4FDAE1046194622E750EA410618BF52EA43067FF4C5AE50EA41047FF40DAF52EA43057FF4EBAE12E74FF0FF3C06E000BF4FF0010C02E000BF19
:403AC0004FF0010C4DF804CD4FEA410C7FEA6C5C4FEA430C18BF7FEA6C5C1BD001B050EA410C0CBF52EA430C91EA030F02BF90EA020F0020704710F1000F91EA030F58BF40
:403B0000994208BF90422CBFD8176FEAE37040F0010070474FEA410C7FEA6C5C02D150EA013C07D14FEA430C7FEA6C5CD6D152EA033CD3D05DF8040B704700BF8446104652
:403B400062468C461946634600E000BF01B5FFF7B7FF002848BF10F1000F01BD4DF808EDFFF7F4FF0CBF012000205DF808FB00BF4DF808EDFFF7EAFF34BF012000205DF8DD
:403B800008FB00BF4DF808EDFFF7E0FF94BF012000205DF808FB00BF4DF808EDFFF7CEFF94BF012000205DF808FB00BF4DF808EDFFF7C4FF34BF012000205DF808FB00BFA3
:403BC0004FEA410212F5001215D211D56FF47873B3EB625212D94FEAC12343F0004343EA505311F0004F23FA02F018BF404270474FF00000704750EA013005D111F000408E
:403C000008BF6FF0004070474FF00000704700BF4FEA4102B2F1E04324BFB3F5001CDCF1FE5C0DD901F0004C4FEAC0024CEA5070B2F1004F40EB830008BF20F0010070475F
:403C400011F0804F21D113F13872BCBF01F00040704741F480114FEA5252C2F11802C2F1200C10FA0CF320FA02F018BF40F001004FEAC1234FEAD32303FA0CFC40EA0C007E
:403C800023FA02F34FEA4303CCE77FEA625307D150EA01331EBF4FF0FE4040F44000704701F0004040F0FE4040F40000704700BF80F0004002E000BF81F0004142001FBF6B
:403CC0005FEA410392EA030F7FEA226C7FEA236C6AD04FEA1262D2EB1363C1BFD218414048404140B8BF5B42192B88BF704710F0004F40F4000020F07F4018BF404211F0AA
:403D0000004F41F4000121F07F4118BF494292EA030F3FD0A2F1010241FA03FC10EB0C00C3F1200301FA03F100F0004302D5494260EB4000B0F5000F13D3B0F1807F06D35E
:403D400040084FEA310102F10102FE2A51D2B1F1004F40EBC25008BF20F0010040EA03007047490040EB000010F4000FA2F10102EDD1B0FA80FCACF1080CB2EB0C0200FA0E
:403D80000CF0AABF00EBC25052421843BCBFD0401843704792F0000F81F4000106BF80F400000132013BB5E74FEA41037FEA226C18BF7FEA236C21D092EA030F04D092F0B2
:403DC000000F08BF0846704790EA010F1CBF0020704712F07F4F04D1400028BF40F00040704712F100723CBF00F50000704700F0004343F0FE4040F4000070477FEA226221
:403E000016BF08467FEA23630146420206BF5FEA412390EA010F40F4800070474FF0000304E000BF10F0004348BF40425FEA000C08BF704743F0964301464FF000001CE06C
:403E400050EA010208BF70474FF000030AE000BF50EA010208BF704711F0004302D5404261EB41015FEA010C02BF84460146002043F0B64308BFA3F18053A3F50003BCFAC3
:403E80008CF2083AA3EBC25310DB01FA02FC634400FA02FCC2F12002BCF1004F20FA02F243EB020008BF20F00100704702F1200201FA02FCC2F1200250EA4C0021FA02F206
:403EC00043EB020008BF20EADC7070474FF0FF0C1CEAD0521EBF1CEAD15392EA0C0F93EA0C0F6FD01A4480EA010C400218BF5FEA41211ED04FF0006343EA501043EA511192
:403F0000A0FB01310CF00040B1F5000F3EBF490041EAD3715B0040EA010062F17F02FD2A1DD8B3F1004F40EBC25008BF20F00100704790F0000F0CF0004C08BF49024CEABA
:403F4000502040EA51207F3AC2BFD2F1FF0340EAC250704740F400004FF00003013A5DDC12F1190FDCBF00F000407047C2F10002410021FA02F1C2F1200200FA02FC5FEA93
:403F8000310040F1000053EA4C0308BF20EADC70704792F0000F00F0004C02BF400010F4000F013AF9D040EA0C0093F0000F01F0004C02BF490011F4000F013BF9D041EA07
:403FC0000C018FE70CEAD15392EA0C0F18BF93EA0C0F0AD030F0004C18BF31F0004CD8D180EA010000F00040704790F0000F17BF90F0004F084691F0000F91F0004F14D0D3
:4040000092EA0C0F01D142020FD193EA0C0F03D14B0218BF084608D180EA010000F0004040F0FE4040F40000704740F0FE4040F4400070474FF0FF0C1CEAD0521EBF1CEA5A
:40404000D15392EA0C0F93EA0C0F69D0A2EB030280EA010C49024FEA402037D04FF0805343EA111143EA10130CF000408B4238BF5B0042F17D024FF4000C8B4224BF5B1A8E
:4040800040EA0C00B3EB510F24BFA3EB510340EA5C00B3EB910F24BFA3EB910340EA9C00B3EBD10F24BFA3EBD10340EADC001B0118BF5FEA1C1CE0D1FD2A3FF650AF8B4262
:4040C00040EBC25008BF20F0010070470CF0004C4CEA50207F32C2BFD2F1FF0340EAC250704740F400004FF00003013A37E792F0000F00F0004C02BF400010F4000F013A31
:40410000F9D040EA0C0093F0000F01F0004C02BF490011F4000F013BF9D041EA0C0195E70CEAD15392EA0C0F08D142027FF47DAF93EA0C0F7FF470AF084676E793EA0C0F00
:4041400004D14B023FF44CAF08466EE730F0004C18BF31F0004CCAD130F000427FF45CAF31F000437FF43CAF5FE700BF014B1868704700BF6881FF1F0E4B70B51E460E4CD5
:404180000025E41AA410A54204D056F8253098470135F8E702F0D6FA084B094C1E46E41AA4100025A54204D056F8253098470135F8E770BD5067000050670000506700008D
:4041C0005867000010B5431E0A44914204D011F8014B03F8014FF8E710BD03460244934202D003F8011BFAE770472DE9F04788B0149F002B1E461299B8BF03F1004327F07D
:404200002007B6BF1E4600232D23462F1446109DDDF84CA00B7003D0452F03D1013501E0032300E0022307AA049206AA03928DE828042246334600F003FD472F804602D1E9
:40424000119BDB0728D5462F08EB050911D198F80030302B0AD10022002320463146FFF77DFC18B9C5F10105CAF80050DAF8003099440022002320463146FFF76FFC08B912
:40428000302202E0CDF81C9006E0079B994503D9591C07911A70F8E74046079B159AC8EB0303136008B0BDE8F087034673B50029B8BF494203F8022BB4BF2D222B220929C5
:4042C00042701ADD0DF1070216460A2591FBF5F405FB1411092C01F1300102F8011D2146F4DC3031541E02F8011CB4421A460AD214F8012B03F8012BF7E71A4630242144D0
:4043000002F8024B5970101A02B070BD2DE9F04F91B00C46DDF8688016461F46054601F027FA03681846099300F0F4FB00230E93D8F800300A90073323F0070303F10802AA
:4043400094F81890D4F800B0C8F80020D3E90023C4E91223D4F84CA0D4F848802AF000430B934FF0FF32A74B40460B9901F054FFA0B94FF0FF32A34B40460B99FFF702FC00
:4043800060B90022002340465146FFF7F1FB10B12D2384F843309C4B9C4A0AE0424653464046514601F038FF002800F09281984B984AB9F1470F8CBF9046984603232361EA
:4043C0002BF0040323604FF0000A3DE0B9F1670F00F08A81B9F1470F00F0868123600193636800210DF13302059002920093424653460691CDF81090CDF80CE02846FFF77C
:40440000F4FE09F0DF03472B804600F08481B9F1650F0D9900F28D8101394A4604F150000D91FFF742FF0E9A82468318012A236100F37C812268D10700F178819DF83330EC
:4044400013B12D2384F84330009733460FAA2146284600F09FF9013002D14FF0FF3096E123685A0501D4236965E0B9F1650F40F2D580D4E9120100220023FFF76FFB78B355
:404480000123654A31462846B8470130E5D00E9B0D9A9A420BDB2368D80708D423689B0740F111814FF0000804F1190906E10A9B099A31462846B8470130CED04FF0000890
:4044C00004F11A090E9B013B9845E7DA01234A4631462846B8470130BFD008F10108F1E70D9B002B29DC01234B4A31462846B8470130B2D00D9B23B90E9B13B92368D90763
:40450000CCD50A9B099A31462846B8470130A4D04FF0000904F11A0A0D9B5B42994509DA0123524631462846B847013095D009F10109F1E70E9B4246A7E00E9AA36D9A4244
:40454000A8BF1A46002A914606DC4FF0000A29EAE97904F11A0B11E01346314642462846B8470130F1D178E701235A4631462846B84701303FF471AF0AF1010AA36DC9EBBB
:4045800003029245F0DB08EB03090D9A0E9B9A420FDB2368DA070CD40E9B0D9A9844C9EB08089B1A9845A8BF9846B8F1000F08DC0FE00A9B099A31462846B8470130EBD188
:4045C0004BE743464A4631462846B84701303FF444AF4FF0000928EAE87804F11A0A09E00123524631462846B84701303FF435AF09F101090D9A0E9B9B1AC8EB03039945F1
:40460000EEDB4BE7FFFFEF7FE2650000E6650000EA650000EE650000F26500000E9A012A01DCDB0738D50123424631462846B84701303FF412AF0A9B099A31462846B84708
:4046400001303FF40AAFD4E9120100220023FFF785FA20B14FF0000804F11A090EE00E9B08F10102013B19E001234A4631462846B84701303FF4F1AE08F101080E9B013B19
:404680009845F1DB534604F1500231462846B84701307FF403AFE0E64246012331462846B8470130EED1D8E601234A4631462846B84701303FF4D1AE08F10108E3680F9AC2
:4046C0009B1A9845F0DBE0680F9B9842B8BF18465DE062680EA8531C0DF1340E4BF480637FF474AE062201E012B90122626075E6002106910DF133018DE80C002360059002
:404700004246CDF81090CDF80CE0029153462846FFF76BFD80460D9BD81C02DB626893421DDDA9F102095FFA89F970E60133236184E6B9F1660F14D10029636807DD2161B5
:4047400013B92268D2071DD501330B4419E013B92268D00701D5023313E0012311E04FF067090D9B0E9A934205DB22682361D10708D5013305E0002BD4BFC3F10203012331
:40478000134423610D9B4FF0000AA36556E611B0BDE8F08F2DE9F04791461F460A698B6806469342B8BF1346C9F8003091F843200C46DDF8208012B10133C9F8003023680D
:4047C000990642BFD9F800300233C9F80030256815F0060510D104F1190A07E00123524639463046C04701301AD00135E368D9F800209B1A9D42F1DB94F843302268003314
:4048000018BF012392060FD5E118302081F843005A1C94F845102244023382F8431003E04FF0FF30BDE8F08704F1430239463046C0470130F4D02268D9F80050E36802F0BD
:404840000602042A08BF5D1B2269A3680CBF25EAE57500259342C4BF9B1AED184FF000091A344D4509D00123224639463046C0470130D5D009F10109F3E70020BDE8F08749
:404880002DE9F04317460A7E85B06E2A984606460C460C9B01F1430E00F0AE8011D8632A22D009D8002A00F0BB80582A40F0CA8081F84520834955E0642A1ED0692A1CD005
:4048C000C0E0732A00F0B08009D86F2A2ED0702A40F0B8800A6842F020020A603EE0752A24D0782A3AD0ADE01A6801F14205111D1960136884F84230A8E021681A6811F068
:40490000800F02D0111D196008E011F0400F02F10401196002D0B2F9003000E01368002B3CDA2D225B4284F8432037E021681A6811F0800F02D0111D196007E011F0400F50
:4049400002F10401196001D0138800E01368227E5C496F2A14BF0A2208221BE078225A4984F845202268186812F0800F00F104051D6003D1550601D5038800E00368D0071B
:4049800044BF42F0200222601BB9226822F0200222601022002084F8430001E049490A226568002DA56008DB206820F0040020602BB9002D7DD175460CE0002B79D0754627
:4049C000B3FBF2F002FB1033CB5C05F8013D03460028F5D1082A0BD12368DA0708D5236962689A42DEBF302305F8013C05F1FF35C5EB0E0323612EE008681A6810F0800F9D
:404A0000496903D0101D1860136808E010F0400F02F104001860136801D0198000E0196000232361754616E01A68111D1960156800216268284600F0A7FE08B1401B60602D
:404A4000636804E004F1420584F8422001232361002384F84330CDF800803B4603AA21463046FFF797FE013002D14FF0FF3026E023692A4639463046C0470130F5D02368E7
:404A80009B0710D5002504F1190907E001234A4639463046C0470130E7D00135E368039A9B1A9D42F2DBE068039B9842B8BF184605E00B7804F1420584F842308AE705B0E8
:404AC000BDE8F083F4650000056600000EB400B54FF402719CB0ADF814106FF00041049107914FF6FF711DAB02900690084853F8042BADF81610006802A9019301F03AFAC5
:404B0000029B00221A701CB05DF804EB03B070476881FF1F034613F8012B002AFBD1181A013870472DE9F74F03690C6980469C427FDC013C01F114074FEA840E00F11406B7
:404B400006EB0E0357F82450019356F824300135B3FBF5F507EB0E09C5B34FF0000A3846B446D34650F8043B9AB205FB02A21B0C4FEA124A05FB03A392B2C2EB0B0BBCF87D
:404B800000204FEA134A5A441FFA83FBDCF800308145CBEB134303EB224392B242EA03424FEA234B4CF8042BDCD256F80E306BB9019B043B9E421A4602D3C8F8104005E0CF
:404BC0001268043B002AF8D1013CF3E7404600F0F6FF00282BDB304601354FF0000E57F8042B036891B2C1EB0E0E120C99B27144C2EB134303EB214389B24FEA234EB94516
:404C000041EA034340F8043BE9D256F8242006EB840362B9043B9E421A4602D3C8F8104005E01268043B002AF8D1013CF3E7284600E0002003B0BDE8F08F0000000000005B
:404C40002DE9F04F456A95B08246219CCDE9022345B9102000F090FDCAF82400456085600560C560DAF82430196859B15A68012393404A608B60504600F0C9FDDAF8243075
:404C800000221A60039BA04A002BBDBF01232360039B0023BCBF23F000430393DDF80C80A8BF236028F000431B0D1B0593421DD142F20F73209A1360029B43B9934A944B71
:404CC000C8F31300002814BF1846104600E09048229B002B00F04685C37813B100F1080300E0C31C229A136000F03CBDDDE902450022002320462946FEF730FF074658B169
:404D0000209A01231360229B002B00F01E8581481860013800F026BD12AB019313AB009322462B46504600F0C5FFC8F30A56049056B1C5F3130343F07F51204641F4401122
:404D4000A6F2FF3611971DE0139B129E1E4406F23243202B0ADD029A06F21240C3F1400322FA00F008FA03F3184304E0C3F12000029B03FA00F0FEF713FC0123A1F1F871C1
:404D8000013E11930022644BFEF7CCFA58A3D3E90023FEF77BFC58A3D3E90023FEF7C4FA044630460D46FEF70BFC55A3D3E90023FEF76CFC02460B4620462946FEF7B4FA5D
:404DC00004460D46FEF7FCFE00228346002320462946FEF7CDFE58B15846FEF7F1FB02460B4620462946FEF7B9FE08B90BF1FF3BBBF1160F0DD8DDE90223484901EBCB0101
:404E0000D1E90001FEF7D2FE30B10BF1FF3B002300E00123109300E01090129B9E1B731E079343BFC3F10008002307934FF00008BBF1000F06DB079BCDF82CB05B44079326
:404E4000002705E00023CBEB0808CBF100070B931E9B092B28D8052BC4BF043B1E931E9BC8BF0025A3F10203D8BF0125032B20D8DFE803F0060E0204012302E0012308E085
:404E800000230A931F9B002B1DDD9946059321E000230A931F9B0BEB030909F10103012B0593B8BF012315E0012500231E930A9501E001230A934FF0FF390022CDF81490D0
:404EC00012231F9206E04FF001094B46CDF81490CDF87C90DAF8244000226260042101F114029A421CD86268490001326260F6E761436F63A787D23FB3C8608B288AC63F04
:404F0000FB799F501344D33F0000F07F166600001F660000F36500000000F83F306600006168504600F03EFCDAF8243020601B680693059B0E2B00F25B81002D00F0588128
:404F4000DDE90234BBF1000FCDE90E3430DD9F4A0BF00F034FEA2B1502EBC303E80618CBCDE908340CD5DDE90E01994B05F00F05D3E90823FEF7B4FC0324CDE9020100E0A1
:404F80000224934E6DB1E90708D5DDE90801D6E90023FEF77BFBCDE9080101346D100836F0E7DDE90823DDE90201FEF799FC20E0CBF1000505B3DDE90E01844B05F00F02F6
:404FC00003EBC203D3E90023FEF760FBCDE902017F4E2D110023022455B1EA0705D5D6E90023FEF753FB013401236D100836F3E71BB1CDE9020100E00224109BE3B1DDE94E
:4050000002560022734B28463146FEF7B1FD98B1059B8BB1B9F1000F40F3E6800BF1FF330893314600226C4B2846FEF72FFB0134CDE902014E4602E0059ECDF820B0204691
:40504000FEF7BEFADDE90223FEF720FB634B0022FEF76AF9A1F1507304460C931D46D6B9DDE9020100225E4BFEF75CF922460C9BCDE90201FEF79AFD002840F03F820C9940
:40508000224601F10043DDE90201FEF771FD002840F02B82A8E00A9A4C4B711E002A49D003EBC103D3E9002300204E49FEF718FC22462B46FEF736F9CDE90C01069CDDE914
:4050C0000201FEF77DFD0546FEF77AFA02460B46DDE90201FEF726F9DDE90C23303504F8015BCDE90201FEF743FD002840F01D83DDE9022300203749FEF714F9DDE90C23FA
:40510000FEF736FD002840F0D180069BE31AB3426ADADDE90C0100222F4BFEF7B7FA0022CDE90C01DDE902012B4BFEF7AFFACDE90201C4E703EBC1012246D1E900012B4648
:40514000FEF7A4FA069BCDE90C011D469C19DDE90201FEF735FD0646FEF732FA02460B46DDE90201FEF7DEF8303605F8016BAC42CDE902014FF0000222D11A4BDDE90C01B4
:40518000FEF7D2F802460B46DDE90201FEF70EFD002840F08B80DDE90C2300201149FEF7C1F802460B46DDE90201FEF7E1FCD8B114F8013C621E302B40F0B7821446F7E7CC
:4051C000054BFEF763FACDE90201C0E730660000086700000000F03F0000244000001C40000014400000E03FDDE90E34CDE90234139B002B7CDBBBF10E0F79DCAB4B03EB20
:40520000CB03D3E900671F9B002B14DA059B002B11DC40F06C810022A54B30463946FEF735FADDE90223FEF7B7FC059D2E46002840F05F8165E1069CDDE9028932463B4697
:4052400040464946FEF74CFBFEF7BAFC0546FEF7B7F932463B46FEF719FA0B46024649464046FEF75FF805F1300E069B04F801EBC3EB040E059B73452DD102460B46FEF7E6
:4052800053F88046894602460B4630463946FEF76FFC78B942464B4630463946FEF75EFC002800F04482EB0704D440E2DDF820B000E01C4614F8012C631E392A07D1069A4C
:4052C0009A42F6D1069930220BF1010B0A701A7801321A702BE20022764BFEF7D7F90022002380468946FEF739FC0028A6D01EE20A9A002A2BD01E9A012A0ADC119A12B1F2
:4053000003F2334302E0129BC3F136033D46444613E0059B5D1EAF42BFBF0B9BEA1B9B180B93059BB6BF2F467D1B0025002BA7BF4446059BC3EB08040023079A01211A4400
:4053400050469844079200F001FB064602E03D4644460A9E5CB1079B002B08DDA342A8BF2346079AC3EB0808E41AD31A0793002F1DDD0A9BABB18DB131462A46504600F026
:405380007FFB049A01460646504600F0E8FA04990890504600F03BFA089B04937A1B06D000E03A460499504600F06AFB04900121504600F0CBFA0B9B05465BB31A460146B6
:4053C000504600F05DFB1E9B0546012B18DC029B83B9039BC3F3130373B9039B23F000473F0D3F054FB1079B08F1010801330793012702E0002700E0029F0B9B73B100E0E6
:4054000000272B6905EB8303186900F052FAC0F1200004E01E9B012BD9DD0B9F0120079B184410F01F0008D0C0F12003042B02DDC0F11C0002E006D018461C30079B8044F7
:40544000034404440793B8F1000F05DD42460499504600F063FB0490079B002B05DD29461A46504600F05AFB0546109B23B32946049800F0A4FB00281EDA00230A22049901
:40548000504600F0DBF90A9B0BF1FF3B0490002B00F05F81314600230A22504600F0CEF9B9F1000F06463FDC3BE000BF306600000000144000002440059B002B2BDC1E9B42
:4054C000022B28DDDDF81490B9F1000F11D129464B460522504600F0B1F901460546049800F06DFB00280CDC03E0354600E000252E461F9B069C6FEA030B09E03546DDF8A6
:4055000020B0069B069A5C1C312313700BF1010B05960026F7E00A9BDDF8149023B9069CB2E01E9B022BCFDC002C05DD31462246504600F0F3FA06469FB17168504600F051
:4055400031F90446326906F10C01023292000C30FEF738FE01222146504600F0DFFA059000E00596029B069F03F00103079329460498FFF7D7FA3146044600F130080498C7
:4055800000F01DFB059A02902946504600F033FBC36802463BB901460A90049800F00FFB0A9A034600E00123114650460A9300F02EF90A9B53B91E9A42B9079A32B9B8F186
:4055C000390F2AD0029B002B1CDC1DE0029A002A04DB1BD11E9ACAB9079ABAB9002B13DD01220499504600F099FA2946049000F0E6FA002803DC07D118F0010F04D0B8F191
:40560000390F0AD004F131087C1C0CE0002B07F101040BDDB8F1390F03D139233B70013756E008F1010887F800806CE0069B2746E31A4B4504F8018C3BD000230A220499E4
:40564000504600F0FBF8059B04909E424FF00A024FF000033146504604D100F0EFF80646059084E700F0EAF8002306460A220599504600F0E3F8059079E700230A220499BE
:40568000504600F0DBF8049029460498FFF74AFA069B00F1300804F8018BE31A4B45ECDB069B0596B9F1010FACBF4B4401331F46002601220499504600F030FA29460490F0
:4056C00000F07DFA002803DC15D118F0010F12D03C4614F8013C621E392B09D1069B934204D10BF1010B3123069A02E01446F0E70133137007E03C4614F8013C621E302B35
:4057000001D11446F8E72946504600F080F8059B6BB12EB19E4203D03146504600F077F80599504600F073F801E0DDF820B00499504600F06CF80023209A23700BF101032B
:405740001360229B1BB11C6001E008480AE0069808E0B9F1000F3FF7E2AE1E9B022B7FF7DEAEB1E615B0BDE8F08F00BFF2650000004870476C81FF1F024B0146186800F005
:4057800041BB00BF6881FF1F10B5C9B202449042034605D01C7801308C42F8D1184610BD002010BD70B5456A04460E463DB91020FFF7E2FF6062456085600560C560656A29
:4057C000EB6843B1636ADB6853F8260078B1026843F8262017E021220421204600F0B8FA636AE860DB68002BECD1002070BD012101FA06F56A1D9200204600F0A9FA002887
:40580000F3D04660856000230361C36070BD70B5446A06460D463CB91020FFF7ADFF7062446084600460C4603DB1736A6A68DB6853F82210296043F8225070BD2DE9F04121
:4058400006460C460D691F4601F1140E0023DEF80000013381B202FB0171000C0F0C02FB007089B201EB00419D424FEA10474EF8041BECDCD7B1A3689D4212DB6168304696
:405880000131FFF78FFF8046226904F10C01023292000C30FEF796FC21463046FFF7B7FF444604EB850301355F6125612046BDE8F081030C1B0413B90004102300E00023A0
:4058C00010F07F4F04BF0002083310F0704F04BF0001043310F0404F04BF80000233002803DB420003D5581C70471846704720207047036813F007020BD0D90722D49A07F9
:405900004BBF5B089B08036003604CBF01200220704799B209B91B0C102213F0FF0F04BF1B0A0832190704BF1B090432990704BF9B080232D90702D45B0805D001320360F8
:4059400010467047002070472020704710B50C460121FFF727FF01224461026110BD2DE9F74F14460A69236988469A42BEBF0B46A0461C46D8F81070D4F81090D8F80830C6
:40598000D8F8041007EB09069E42C8BF0131FFF709FF00F114052B4605EB860C0022634502D243F8042BFAE704F1140208F1140102EB890301EB87070093009B01929342E3
:4059C00057D9B2F800B0BBF1000F23D08946AE464FF0000859F8044BBEF800A0A3B20BFB03A34FEA144ADEF8004043444FEA14480BFB0A84F24604EB13449BB243EA0443D2
:405A00004F454FEA14484AF8043B01D9D646E1E7CEF80480019B0432B3F802A0BAF1000F21D02C4689462B684FF00008B9F800E0B4F802B09BB20AFB0EBEA346F04443EA78
:405A400008434BF8043B59F8043BB4F804E01B0C0AFB03E34F4503EB18434FEA134801D95C46E3E763600435A7E75CF8043D13B9013E002EF9DC066103B0BDE8F08F000005
:405A80002DE9F843154612F0030206460F4607D0214C013A002354F82220FFF7CFFE0746AD1036D0746A3CB91020FFF765FE7062446084600460C460D6F82480D8F80840C7
:405AC0004CB940F271213046FFF740FF04460023C8F8080003604FF00008EB070AD5394622463046FFF73BFF814639463046FFF78EFE4F466D100CD0206808B10446ECE76B
:405B0000224621463046FFF72AFF2060C0F80080F4E73846BDE8F883F86600002DE9F0470C460746914626694FEA621A56444968A368751CAB4202DA01315B00FAE73846CF
:405B4000FFF730FE002380461A4600F11401534503DA41F823200133F9E72AEAEA73206901EB830319F01F0904F1140101EB800E14D0C9F1200C002208689A4600FA09F05D
:405B8000024343F8042B51F8042B8E4522FA0CF2F2D8CAF8042042B1B51C06E0043B51F8042B8E4543F8042FF9D8013D3846C8F810502146FFF72BFE4046BDE8F08703693E
:405BC0000A6910B59B1A11D192001430143183180A4453F8044D52F8041D8C4202D007D3012010BD9842F4D3002010BD184610BD4FF0FF3010BD2DE9F8430C460746114628
:405C000020461546FFF7DBFF061E08D131463846FFF7C8FD012303614661BDE8F883BCBF23462C4638466168BABF1D4601260026FFF7B8FD2B69C660266905F1140904F115
:405C4000140101EB860709EB830800F114054FF0000C51F8042B59F8044B93B29C44A3B2240CC3EB0C03C4EB124202EB23429BB24FEA224CC84543EA02428E4645F8042B3C
:405C8000E7D8BE450ED25EF8041B8AB26244131403EB114392B242EA03424FEA234C45F8042BEEE755F8043D0BB9013EFAE70661BDE8F8832DE9F3411C4601219046089EA1
:405CC000099DFFF76FFDC4F31302C4F30A5407460CB142F480120192B8F1000F19D002A840F8088DFFF705FE009B48B1019AC0F1200102FA01F10B43C2407B61019200E0B7
:405D00007B61019B002B14BF02210121BB61396107E001A8FFF7EDFD019B01217B613961203034B1A4F2334404443460C0F1350009E0A0F2324007EB810330601869FFF7E0
:405D4000B8FDC0EB41102860384602B0BDE8F08138B502FB01F4214600F054F8054618B122460021FEF739FA284638BD38B50546002944D051F8043C0C1F002BB8BFE41833
:405D800000F017FA1E4A1368114613B96360146030E0A3420DD92268A018834201BF18685B681218226063600C6023E0A24203D813465A68002AF9D118681918A1420BD1A4
:405DC0002168014458188242196013D110685268014419605A600DE002D90C232B6009E021686018824201BF106852680918216062605C602846BDE8384000F0DBB938BD54
:405E0000E481FF1F70B5CD1C25F0030508350C2D38BF0C25002D064601DBA94202D90C23336046E000F0C5F9234B1C681A462146A1B10B685B1B0ED40B2B03D90B60CC182E
:405E4000CD501EE08C420BBF63684B681360636018BF0C4615E00C464968E9E7174C23681BB9304600F07AF920602946304600F075F9431C18D0C41C24F00304A0420DD16A
:405E80002560304600F096F904F10B00231D20F00700C31A0ED05A42E25070BD211A304600F05CF90130EBD10C233360304600F081F9002070BD00BFE481FF1FE081FF1FC8
:405EC0002DE9F0478E6882469E420C46914698463ED88A8912F4906F3AD02568096902236F1A656905EB450595FBF3F57B1C43449D4238BF1D4653050FD52946FFF782FFD2
:405F0000064698B13A462169FEF75CF9A38923F4906343F08003A38113E02A4600F04BF9064670B921695046FFF720FF0C23CAF80030A3894FF0FF3043F04003A381BDE82D
:405F4000F08726613E44266046466561ED1BA560464528BF464649463246206800F00EF9A36800209B1BA36023681E442660BDE8F08700002DE9F04F9DB003938B898046B3
:405F80001C060D4616460DD50B695BB94021FFF739FF2860286118B90C23C8F80030CDE040236B610023099320238DF82930DFF89CB130238DF82A3037463C4614F8013BBD
:405FC0001BB9B7EB060910D003E0252BF9D02746F3E74B46324629464046FFF771FF013000F0A780099B4B4409933B78002B00F0A08000234FF0FF3204930793059206939C
:406000008DF853301A930126052221784E48FFF7BBFB671C049B38B14B4A3C46801A06FA00F018430490EFE7D90644BF20228DF853201A0744BF2B228DF8532022782A2A9E
:4060400003D0079A00210A200BE0039A111D12680391002A10DA524243F00200079204900BE027463B780134303B092B03D800FB02320121F5E701B107923B782E2B1ED166
:406080007B782A2B0AD1039B02371A1D1B680392002BB8BF4FF0FF33059310E0002319460593781C0A2407463A780130303A092A03D804FB01210123F5E703B105910322E8
:4060C00039782248FFF760FB40B14023CBEB000003FA00F0049B013718430490397806221B487E1C8DF82810FFF74EFB88B1194B33B9039B073323F007030833039314E062
:4061000003AB00932A46144B04A94046FEF7FEF807E003AB00932A460F4B04A94046FEF7AFFBB0F1FF3F824603D0099B5344099342E7AB895B0601D4099801E04FF0FF3099
:406140001DB0BDE8F08F00BF30670000366700003A6700000D430000C15E000038B5064C0023054608462360FAF7AAF9431C02D1236803B12B6038BDCC82FF1F884210B52D
:4061800001EB020301D8421E0BE09842FBD28118D21AD34204D013F8014D01F8014DF8E710BD994204D011F8014B02F8014FF8E710BD70477047F8B5074615460E4621B97E
:4061C0001146BDE8F840FFF71DBE1AB9FFF7CEFD2846F8BD00F015F885420ED929463846FFF710FE044650B131462A46FDF7EAFF31463846FFF7BAFD01E03046F8BD204624
:40620000F8BD51F8040C0028BEBF091851F8043CC0180438704700004FEA410C7FEA6C5C02D150EA013C0AD14FEA430C7FEA6C5C02D152EA033C02D14FF0000070474FF04B
:406240000100704700000000252E33662C252E33662C252E33662C252E33662C252E33660D0A0000305100404000C051004010000000014000100014014000080040014072
:40628000000A004C014000020050014020000000303132333435363738394142434445460000000001000000AC62000001000000F06300000000000000000000010000008E
:4062C000C462000001000000AC63000003000000F06200000000000000000000000000000000000000000000EC620000020A000000008103080002000100820240000A005C
:406300000100030240000A0002030000040309042C0343007900700072006500730073002000530065006D00690063006F006E0064007500630074006F00720010035500F5
:406340005300420055004100520054003803430044004300200043006F006D006D0075006E00690063006100740069006F006E00200049006E0074006500720066006100E8
:4063800063006500260343004400430020004400610074006100200049006E0074006500720066006100630065000000090243000201018032090400000102020103052494
:4063C00000100104240202052406000105240100010705810308000A09040100020A0000040705820240000007050302400000001201000202000008B40432F20100010225
:4064000080010000FB21F93FFB2109407CD91240FB2119407A6A1F407CD92240BBFD2540FB2129403A462C407A6A2F405C4731407CD932409C6B3440BBFD3540DB8F3740C7
:40644000FB2139401BB43A403A463C405AD83D407A6A3F404C7E40405C4741406C1042407CD942408CA243409C6B4440AC344540BBFD4540CBC64640DB8F4740EB5848403C
:40648000FB21494083F9A200444E6E00FC291500D1572700DD34F50062DBC0003C999500419043006351FE00BBDEAB00B761C5003A6E2400D24D42004906E00009EA2E00BF
:4064C0001C92D100EB1DFE0029B11C00E83EA700F535820044BB2E009CE98400B4267000417E5F00D6913900538339009CF439008B5F840028F9BD00F81F3B00DEFF970080
:406500000F980500112FEF000A5A8B006D1F6D00CF7E360009CB2700464FB7009E663F002DEA5F00BA277500E5EBC7003D7BF100F739070092528A00FB6BEA001FB15F005B
:40654000085D8D00300356007BFC4600F0AB6B0020BCCF0036F49A00E3A91D005E619100081BE60085996500A0145F008D40680080D8FF0027734D0006063100CA561500F1
:40658000C9A873007BE260006B8CC000020000000300000004000000060000000000000000000040FB21F93F000000002D44743E000000809846F83C0000006051CC783BFB
:4065C00000000080831BF0390000004020257A38000000802282E336000000001DF369354300494E4600696E66004E414E006E616E003000303132333435363738394142FB
:4066000043444546003031323334353637383961626364656600496E66696E697479004E614E00504F534958002E000000000000000000000000F03F00000000000024404B
:4066400000000000000059400000000000408F40000000000088C34000000000006AF8400000000080842E4100000000D01263410000000084D797410000000065CDCD41D9
:40668000000000205FA00242000000E876483742000000A2941A6D42000040E59C30A2420000901EC4BCD64200003426F56B0C430080E03779C3414300A0D885573476439D
:4066C00000C84E676DC1AB43003D9160E458E143408CB5781DAF154450EFE2D6E41A4B4492D54D06CFF08044F64AE1C7022DB544B49DD9794378EA440500000019000000DA
:406700007D000000000000000080E03779C34143176E05B5B5B89346F5F93FE9034F384D321D30F94877825A3CBF737FDD4F1575232D302B2000686C4C006566674546476E
:4067400000000000F8B500BFF8BC08BC9E4670474D0000003D050000F8B500BFF8BC08BC9E4670472900000078670000C880FF1FE00000002801000000000000D082FF1FA5
:4067800000C2010000000800C201000000080000A120000000000200000000007F800000030000000000E02EC05D00001800000000366E01FFFFFFFF00000000000000009A
:4067C000000000000000000000000000000000000000000000000000E065000000000000000000000000000000000000000000000000000000000000000000000000000054
:406800000000000000000000000000000000000000000000000000000881FF1F29660000356700003567000035670000356700003567000035670000356700003567000042
:4068400035670000FFFFFFFFFFFFFFFFFFFFFFFFFFFF000000000000000000000000000000000000000000000000000000000000000000000000000000000000000000008A
:4068800000000000000000000000000000000000000000000000000000000000000000000000000000000000000000000000000000000000000000000000000000000000D8
:4068C0000000000000000000000000000000000000000000000000000000000000000000000000000000000000000000000000000000000000000000000000000000000098
:406900000000000000000000000000000000000000000000000000000000000000000000000000000000000000000000000000000000000000000000000000000000000057
:406940000000000000000000000000000000000000000000000000000000000000000000000000000000000000000000000000000000000000000000000000000000000017
:020000040003F7
:0200000480007A
:400000000145004003520040015B004001640040020101400103014001050140010701400E08014030090140330A0140430B0140140C0140320D01400E0E0140200F0140BF
:4000400001150140011701400E180140241901400E1A0140241B01400D400140054101400342014003430140024401400A4501400746014009470140044801400149014092
:40008000044C0140054D014007500140025101407E02100111057C4027848B02E080E610E202EE40EE04020203020A010F013302340235013601580459045F01D804D9042D
:4000C000DF0100100182022005800608076009200C020D280E021002132017081D301E02241825082628270C29922C022D022F20300233343590370838103C103D41914152
:40010000940899829A089B709D10A002A508A601A940C0FFC2F2C423CADDCC77CEB4EA01EE040302040113011E0321013001310334025608580C59045B045C905D905F0179
:400140008080824083028440868087018A028C108D048E209101920896049708980899029E01A004A304A420A610A710A801AC02AD08B31FB4FFB908BE10BF04D602D739F9
:40018000D804D904DB0CDF010004048A059006200A020C020D0A0E0A1501160A1744180419011A401F202201273029012C022D012E102F203201359236053B013D803E2AA6
:4001C00058405A105B105E20630167206C016D416E086F0C760A7B027F028948908093209580964098409D129E209F20A102A210A302A548A605A708B640C0F4C2F1C4F0CA
:40020000CAF1CCF1CEF1D628D848DE18EE401A0224012B012C0130023101340138203E1052035302580459045B045F01D401D804D904DB0CDF01001401020414051006208B
:400240000740090A0D0A0E0A0F2012021320158017241D021F11248025012602274029022A202B102F093116351638803D823E205A406E206F067B029480984099049D1266
:400280009E209F20A50AB001C07EC2FCC4E3CA37CCE7CEB8D608DE08E20209010F01110115011901210127013701580459045F01D804D904DF0100100102041005160720E3
:4002C0000810090A0D0A1240132014101660200229062F0A311A330A351638803A603B403E203F408840C07AC23EC43ACA33CCE7CE3CE080E610E810EE02580459045F0185
:4003000084018A018C019801A001A801AC01B601D804D904DF01019002200408058009200C420D280E0210421208151017201802284029802C622D10300231183590360804
:4003400038083910900899909B20A002A128A229C0A7C2F2C44BCAF9CC77CE06EE02580459045F01950199019D01A101A701AB01AD01B101D804D904DF0101400590070299
:40038000084409200C420E0A103012281302141417202480285429802C662D403002311032083590360C8C4099909B20A002A120A229A420B401C0C1C2D7C46ECAFFCC7749
:4003C000E8101280168031203202364037043B023E808A808F04C430CCF0CE6086029702A520A642E2409702A640B520A640AB01EE208F01E608502058405C408408970107
:400400009840B040D405D604E8011B04272094409701A428C608C8010B410C08440294409701A428AB24C20ED0042408AE40C820EE40B40494409C02A420AF408C20A42055
:40044000B442E408E80A000101010C010D010E0110011C0100AB100A00000000000001004000000000000000C0000000000B0B000000000000000000000707000001000062
:40048000000000000000000000000000000000000000000000000000000000000000000000000000000000000000000000000000000000000000000000000000000000003C
:4004C00000000000000000000000000000000000000000000000000000000000000000000000000000000000000000000000000000000000000000000000000000000000FC
:4005000000000000000000000000000000000000000000000000000000000000000000000000000000000000000000000000000000000000000000000000000000000000BB
:40054000000000000000000000000000000000000000000000000000000000000000000000000000000000000000000000000000000000000000000000000000000000007B
:0200000490006A
:0400000000004005B7
:0200000490105A
:04000000BC90ACAF55
:0200000490303A
:0200000074EB9F
:0200000490402A
:4000000000000000000000000000000000000000000000000000000000000000000000000000000000000000000000000000000000000000000000000000000000000000C0
:400040000000000000000000000000000000000000000000000000000000000000000000000000000000000000000000000000000000000000000000000000000000000080
:400080000000000000000000000000000000000000000000000000000000000000000000000000000000000000000000000000000000000000000000000000000000000040
:4000C0000000000000000000000000000000000000000000000000000000000000000000000000000000000000000000000000000000000000000000000000000000000000
:0200000490501A
:0C00000000012E16106900012E3F8554EF
:00000001FF